:020000040000FA
:060000004FEF09F01200B1
:0800080007EF00F01200DACF4F
:10001000E4FFE2CFDAFFE9CFE4FFEACFE4FFF6CF77
:10002000E4FFF7CFE4FFF5CFE4FFF3CFE4FFF4CF35
:10003000E4FFFACFE4FF00EE04F0020EE80403E36D
:10004000EECFE4FFFBD700EE00F0040EE80403E37C
:10005000EECFE4FFFBD7E652F2A469D08C821E0EED
:10006000E66E5DEC09F0E55260C0E6FF5DEC09F07C
:10007000E5528C928C801E0EE66E5DEC09F0E55226
:1000800062C0E6FF5DEC09F0E5528C908B841E0E99
:10009000E66E5DEC09F0E55264C0E6FF5DEC09F048
:1000A000E5528B948B821E0EE66E5DEC09F0E552F4
:1000B00066C0E6FF5DEC09F0E5528B928B801E0E68
:1000C000E66E5DEC09F0E55268C0E6FF5DEC09F014
:1000D000E5528B9089841E0EE66E5DEC09F0E552C8
:1000E0006AC0E6FF5DEC09F0E552899489821E0E34
:1000F000E66E5DEC09F0E5526CC0E6FF5DEC09F0E0
:10010000E552899289801E0EE66E5DEC09F0E5529B
:100110006EC0E6FF5DEC09F0E55289902C0EE66EAC
:10012000750EE66ED9EC08F0E552E552F294E55210
:1001300000EE03F0040EE80403E3E5CFEDFFFBD788
:1001400000EE05F0020EE80403E3E5CFEDFFFBD778
:10015000E5CFFAFFE5CFF4FFE5CFF3FFE5CFF5FFFD
:10016000E5CFF7FFE5CFF6FFE5CFEAFFE5CFE9FF03
:06017000E5CFDAFF1100EB
:02082A000000CC
:04082C00D9CFE6FF3B
:10083000E1CFD9FF020EE126D09E920EE66EF5ECD6
:1008400008F0E5522C0EE66E750EE66ED9EC08F057
:10085000E552E552BCD892909292929494909492E0
:100860009494959095929586958895948C94CA9039
:10087000CA82CA86CA88CA8ACA8CE90ECB6ECA8462
:100880009D82960E0001606F616B626F636B646F97
:10089000656B666F676B686F696B6A6F6B6B6C6FAC
:1008A0006D6B6E6F6F6B000EE66EE66A87DBE5526E
:1008B000E552DE6EDD6A8350080B12E1D9CFE9FF05
:1008C000DACFEAFFEE50ED100BE08C8410DA8C9456
:1008D000E66A000EE66EE66A57DBE552E552E5523F
:1008E0008350100B15E1D9CFE9FFDACFEAFF010EF3
:1008F000EE1801E1ED500CE08C84ACD88C94010E24
:10090000E66E000EE66EE66A3FDBE552E552E55222
:10091000F28E9EAAFED7F29EBAEC08F00001826F1A
:10092000F28E82510DE0ABA202D0AB98AB889EAAAA
:10093000FED7F29EBAEC08F00001826FF28EF1D77A
:10094000F29E080EE66E700EE66E000EE66E4AD857
:10095000E552E552E552F3CF00F0F4CF01F000503C
:10096000011029E170C060F00001616B60BF616936
:1009700071C062F0636B62BF636972C064F0656BE3
:1009800064BF656973C066F0676B66BF676974C0F2
:1009900068F0696B68BF696975C06AF06B6B6ABFA4
:1009A0006B6976C06CF06D6B6CBF6D6977C06EF073
:1009B0006F6B6EBF6F69F28EACD7020EE15C02E224
:1009C000E16AE552E16EE552E7CFD9FF12004D0E24
:1009D000E66EE66A2C0EE66E75EC08F0E552E5521E
:1009E000E5521200D9CFE6FFE1CFD9FF020EE12692
:1009F000DF6AFC0EDB50DF5C20E2ABA206D0AB98D6
:100A0000AB88010EF36EF46A1BD09EAAFED7BAEC37
:100A100008F0E76E010EE7CFDBFFFD0EDBCFE9FF4D
:100A2000FE0EDBCFEAFF010EDBCFEFFFFD0EDB2A70
:100A3000FE0E01E3DB2ADF2ADCD7F36AF46A00D07A
:100A4000020EE15C02E2E16AE552E16EE552E7CFB7
:100A5000D9FF1200D9CFE6FFE1CFD9FF020EE12680
:100A6000DE6ADD6AE66A11EC09F0E552E66A11EC2D
:100A700009F0E552E66A11EC09F0E552E66A11EC7C
:100A800009F0E552E66A11EC09F0E552E66A11EC6C
:100A900009F0E552E66A11EC09F0E552E66A11EC5C
:100AA00009F0E552E66A11EC09F0E552E66A11EC4C
:100AB00009F0E552E66A11EC09F0E552E66A11EC3C
:100AC00009F0E552E66A11EC09F0E552E66A11EC2C
:100AD00009F0E552E66A11EC09F0E552DE6ADD6ADA
:100AE000DECF00F0DDCF01F0D890015004E60A0E11
:100AF000005C000E015816E2780EE66E28EC09F054
:100B0000E552E66A11EC09F0E552E66A11EC09F0EB
:100B1000E552E66A11EC09F0E552DF2A010E01E325
:100B2000DB2ADED70D0EE66E28EC09F0E552300E1A
:100B3000E66E28EC09F0E552E66A11EC09F0E552A0
:100B4000E66A11EC09F0E552E66A11EC09F0E552AB
:100B5000E66A11EC09F0E552E66A11EC09F0E5529B
:100B6000E66A11EC09F0E552E66A11EC09F0E5528B
:100B7000E66A11EC09F0E552E66A11EC09F0E5527B
:100B8000E66A11EC09F0E5520D0EE66E28EC09F06C
:100B9000E552E66A11EC09F0E552E66A11EC09F05B
:100BA000E552E66A11EC09F0E552E66A11EC09F04B
:100BB000E552E66A11EC09F0E552E66A11EC09F03B
:100BC000E552E66A11EC09F0E552E66A11EC09F02B
:100BD000E552E66A11EC09F0E552E66A11EC09F01B
:100BE000E552300EE66E28EC09F0E552E66A11ECAB
:100BF00009F0E552E66A11EC09F0E552E66A11ECFB
:100C000009F0E552E66A11EC09F0E552E66A11ECEA
:100C100009F0E552E66A11EC09F0E552E66A11ECDA
:100C200009F0E552E66A11EC09F0E552E66A11ECCA
:100C300009F0E552E66A11EC09F0E5520D0EE66E98
:100C400028EC09F0E552DE6ADD6ADECF00F0DDCF88
:100C500001F0D890015004E6090E005C000E015826
:100C60001EE20D0EE66E28EC09F0E552E66A11EC84
:100C700009F0E552E66A11EC09F0E552E66A11EC7A
:100C800009F0E552E66A11EC09F0E552E66A11EC6A
:100C900009F0E552DF2A010E01E3DB2AD6D7E66A26
:100CA00011EC09F0E552E66A11EC09F0E552E66A4A
:100CB00011EC09F0E552E66A11EC09F0E552E66A3A
:100CC00011EC09F0E552390EE66E28EC09F0E55218
:100CD0000D0EE66E28EC09F0E552020EE15C02E230
:100CE000E16AE552E16EE552E7CFD9FF1200D9CFB4
:100CF000E6FFE1CFD9FF020EE126DE6ADD6AE66A91
:100D000011EC09F0E552E66A11EC09F0E552E66AE9
:100D100011EC09F0E552E66A11EC09F0E552E66AD9
:100D200011EC09F0E552E66A11EC09F0E552E66AC9
:100D300011EC09F0E552E66A11EC09F0E552E66AB9
:100D400011EC09F0E552E66A11EC09F0E552E66AA9
:100D500011EC09F0E552E66A11EC09F0E552E66A99
:100D600011EC09F0E552E66A11EC09F0E552E66A89
:100D700011EC09F0E552DE6ADD6ADECF00F0DDCF6E
:100D800001F0D890015004E60A0E005C000E0158F4
:100D900016E2780EE66E28EC09F0E552E66A11ECF0
:100DA00009F0E552E66A11EC09F0E552E66A11EC49
:100DB00009F0E552DF2A010E01E3DB2ADED70D0E32
:100DC000E66E28EC09F0E552300EE66E28EC09F0EC
:100DD000E552E66A11EC09F0E552E66A11EC09F019
:100DE000E552E66A11EC09F0E552E66A11EC09F009
:100DF000E552E66A11EC09F0E552E66A11EC09F0F9
:100E0000E552E66A11EC09F0E552E66A11EC09F0E8
:100E1000E552E66A11EC09F0E552E66A11EC09F0D8
:100E2000E5520D0EE66E28EC09F0E552E66A11EC8B
:100E300009F0E552E66A11EC09F0E552E66A11ECB8
:100E400009F0E552E66A11EC09F0E552E66A11ECA8
:100E500009F0E552E66A11EC09F0E552E66A11EC98
:100E600009F0E552E66A11EC09F0E552E66A11EC88
:100E700009F0E552E66A11EC09F0E552310EE66E32
:100E800028EC09F0E552E66A11EC09F0E552E66A51
:100E900011EC09F0E552E66A11EC09F0E552E66A58
:100EA00011EC09F0E552E66A11EC09F0E552E66A48
:100EB00011EC09F0E552E66A11EC09F0E552E66A38
:100EC00011EC09F0E552E66A11EC09F0E552E66A28
:100ED00011EC09F0E5520D0EE66E28EC09F0E55232
:100EE000DE6ADD6ADECF00F0DDCF01F0D890015080
:100EF00004E6090E005C000E01581EE20D0EE66EBF
:100F000028EC09F0E552E66A11EC09F0E552E66AD0
:100F100011EC09F0E552E66A11EC09F0E552E66AD7
:100F200011EC09F0E552E66A11EC09F0E552DF2A0E
:100F3000010E01E3DB2AD6D7E66A11EC09F0E5528F
:100F4000E66A11EC09F0E552E66A11EC09F0E552A7
:100F5000E66A11EC09F0E552E66A11EC09F0E55297
:100F6000390EE66E28EC09F0E5520D0EE66E28EC1F
:100F700009F0E552020EE15C02E2E16AE552E16E3F
:100F8000E552E7CFD9FF1200D9CFE6FFE1CFD9FF75
:100F9000FD0EDB50A96EFC0EDB50A86EA69EA69C33
:100FA000A684550EA76EAA0EA76EA6820400A6B24E
:100FB000FDD7A694E552E7CFD9FF1200D9CFE6FFBF
:100FC000E1CFD9FFFD0EDB50A96EA69EA69CA680A0
:100FD000A85000D0E552E7CFD9FF1200D9CFE6FFE5
:100FE000E1CFD9FF020EE126DE6ADD6ADECF00F036
:100FF000DDCF01F0FD0EDBCF02F0FE0EDBCF03F004
:1010000001500318E8AE02D0033404D00250005C53
:101010000350015811E2040EE66E6BEC09F0E55244
:101020000000000000000000000000000000DF2AB7
:10103000010E01E3DB2ADAD7020EE15C02E2E16A8B
:0C104000E552E16EE552E7CFD9FF120047
:04104C002A0EF66E04
:10105000080EF76E000EF86E00010900F550886F5B
:101060000900F550896F03E1886701D03DD0090080
:10107000F550836F0900F550846F0900F550856FB6
:1010800009000900F550E96E0900F550EA6E090003
:1010900009000900F550866F0900F550876F0900B7
:1010A0000900F6CF8AF0F7CF8BF0F8CF8CF083C031
:1010B000F6FF84C0F7FF85C0F8FF0001865302E108
:1010C000875307E00900F550EE6E8607F8E28707C0
:1010D000F9D78AC0F6FF8BC0F7FF8CC0F8FF00017C
:0A10E0008807000E895BBFD71200DD
:0610EA00D9CFE6FFDACFCA
:1010F000E6FFE1CFD9FFE2CFDAFFAC6AAB6AFD0EC3
:10110000DBB0AC88DBA202D0AC8CAB8CDBB4AC8E99
:10111000DBA602D0AB8801D0AB8ADBB8AC849E984A
:10112000DBBAAB86DBAC02D09D8A01D09D9A9E9A39
:10113000DBAE02D09D8801D09D98FB0EDB50AF6ED8
:10114000FB0EFC0EDBCF01F001C000F0016A005085
:10115000B06EAC8AAB8E949C948EAC50100B04E0B5
:10116000AC50800B01E1948CE552E5CFDAFFE7CF7C
:04117000D9FF120091
:0C117400D9CFE6FFDACFE6FFE1CFD9FFCC
:10118000E2CFDAFFE652F20E00018D17ABAC03D0CE
:101190008D91ABB08D81ABB48D85ABB28D87AE50E8
:1011A000DF6EDF50E552E552E5CFDAFFE7CFD9FF3A
:0211B00012002B
:0E11B200D9CFE6FFDACFE6FFE1CFD9FFE2CFDB
:1011C000DAFFE652E652FC0EDBCFDEFFDBCFDDFFBF
:1011D000010EDB50D76EDF50D66EE552E552E55278
:0A11E000E5CFDAFFE7CFD9FF1200D8
:0611EA00D9CFE6FFDACFC9
:1011F000E6FFE1CFD9FFE2CFDAFFFD0EDB507F0B38
:10120000D56ED76AD66AF294FD0EDBAE02D0F28AB2
:1012100001D0F29AD58EE552E5CFDAFFE7CFD9FFBC
:021220001200BA
:0E122200FF0EE350076EEF0E01D0F30EE76EE5
:10123000E72E18EF09F00C0E066EE76AE72E1EEF98
:1012400009F0062E1DEF09F0072E16EF09F0120027
:10125000D9CFE6FFDACFE6FFE1CFD9FFE2CFDAFF61
:10126000ACAC04D0AC9000018DB3AC80FD0EDB5073
:0E127000AD6EE552E5CFDAFFE7CFD9FF1200F1
:02127E00000E60
:10128000F36E00EE00F0040E01D81200EA6002D006
:0E129000EE6AFCD7F350E9601200EE6AFCD75C
:02129E0013EE4D
:1012A00000F023EE00F0F86A059C26EC08F076ECDE
:0A12B00009F016EC04F0FBD7120061
:0612BA00FF0EE350076E79
:1012C0001B0E00D001D0200EE76EE72EFED7072EB2
:0612D000FAD700D0120065
:0A12D600FF0EE350E84E1200000086
:0C12E00000D000D000D0E82EFAD7120099
:0212EC001200EE
:00000001FF
